{
  "contractName": "Lottery",
  "abi": [
    {
      "inputs": [],
      "stateMutability": "nonpayable",
      "type": "constructor"
    },
    {
      "inputs": [],
      "name": "manager",
      "outputs": [
        {
          "internalType": "address",
          "name": "",
          "type": "address"
        }
      ],
      "stateMutability": "view",
      "type": "function",
      "constant": true
    },
    {
      "inputs": [
        {
          "internalType": "uint256",
          "name": "",
          "type": "uint256"
        }
      ],
      "name": "players",
      "outputs": [
        {
          "internalType": "address payable",
          "name": "",
          "type": "address"
        }
      ],
      "stateMutability": "view",
      "type": "function",
      "constant": true
    },
    {
      "inputs": [],
      "name": "winner",
      "outputs": [
        {
          "internalType": "address payable",
          "name": "",
          "type": "address"
        }
      ],
      "stateMutability": "view",
      "type": "function",
      "constant": true
    },
    {
      "stateMutability": "payable",
      "type": "receive",
      "payable": true
    },
    {
      "inputs": [],
      "name": "getBalance",
      "outputs": [
        {
          "internalType": "uint256",
          "name": "",
          "type": "uint256"
        }
      ],
      "stateMutability": "view",
      "type": "function",
      "constant": true
    },
    {
      "inputs": [],
      "name": "pickWinner",
      "outputs": [],
      "stateMutability": "nonpayable",
      "type": "function"
    },
    {
      "inputs": [],
      "name": "allPlayers",
      "outputs": [
        {
          "internalType": "address payable[]",
          "name": "",
          "type": "address[]"
        }
      ],
      "stateMutability": "view",
      "type": "function",
      "constant": true
    }
  ],
  "bytecode": "0x608060405234801561001057600080fd5b50336000806101000a81548173ffffffffffffffffffffffffffffffffffffffff021916908373ffffffffffffffffffffffffffffffffffffffff160217905550610bef806100606000396000f3fe6080604052600436106100595760003560e01c806312065fe014610112578063481c6a751461013d5780635d495aea14610168578063b0ec80941461017f578063dfbf53ae146101aa578063f71d96cb146101d55761010d565b3661010d57670de0b6b3a764000034146100a8576040517f08c379a000000000000000000000000000000000000000000000000000000000815260040161009f9061074a565b60405180910390fd5b6001339080600181540180825580915050600190039060005260206000200160009091909190916101000a81548173ffffffffffffffffffffffffffffffffffffffff021916908373ffffffffffffffffffffffffffffffffffffffff160217905550005b600080fd5b34801561011e57600080fd5b50610127610212565b6040516101349190610783565b60405180910390f35b34801561014957600080fd5b506101526102a9565b60405161015f91906107df565b60405180910390f35b34801561017457600080fd5b5061017d6102cd565b005b34801561018b57600080fd5b50610194610518565b6040516101a191906108ca565b60405180910390f35b3480156101b657600080fd5b506101bf6105a6565b6040516101cc91906108fb565b60405180910390f35b3480156101e157600080fd5b506101fc60048036038101906101f79190610947565b6105cc565b60405161020991906108fb565b60405180910390f35b60008060009054906101000a900473ffffffffffffffffffffffffffffffffffffffff1673ffffffffffffffffffffffffffffffffffffffff163373ffffffffffffffffffffffffffffffffffffffff16146102a3576040517f08c379a000000000000000000000000000000000000000000000000000000000815260040161029a906109c0565b60405180910390fd5b47905090565b60008054906101000a900473ffffffffffffffffffffffffffffffffffffffff1681565b60008054906101000a900473ffffffffffffffffffffffffffffffffffffffff1673ffffffffffffffffffffffffffffffffffffffff163373ffffffffffffffffffffffffffffffffffffffff161461035b576040517f08c379a0000000000000000000000000000000000000000000000000000000008152600401610352906109c0565b60405180910390fd5b600360018054905010156103a4576040517f08c379a000000000000000000000000000000000000000000000000000000000815260040161039b90610a52565b60405180910390fd5b60006103ae61060b565b90506000600180549050826103c39190610aa1565b9050600181815481106103d9576103d8610ad2565b5b9060005260206000200160009054906101000a900473ffffffffffffffffffffffffffffffffffffffff16600260006101000a81548173ffffffffffffffffffffffffffffffffffffffff021916908373ffffffffffffffffffffffffffffffffffffffff160217905550600260009054906101000a900473ffffffffffffffffffffffffffffffffffffffff1673ffffffffffffffffffffffffffffffffffffffff166108fc610488610212565b9081150290604051600060405180830381858888f193505050501580156104b3573d6000803e3d6000fd5b50600067ffffffffffffffff8111156104cf576104ce610b01565b5b6040519080825280602002602001820160405280156104fd5781602001602082028036833780820191505090505b5060019080519060200190610513929190610646565b505050565b6060600180548060200260200160405190810160405280929190818152602001828054801561059c57602002820191906000526020600020905b8160009054906101000a900473ffffffffffffffffffffffffffffffffffffffff1673ffffffffffffffffffffffffffffffffffffffff1681526020019060010190808311610552575b5050505050905090565b600260009054906101000a900473ffffffffffffffffffffffffffffffffffffffff1681565b600181815481106105dc57600080fd5b906000526020600020016000915054906101000a900473ffffffffffffffffffffffffffffffffffffffff1681565b600043404260018054905060405160200161062893929190610b7c565b6040516020818303038152906040528051906020012060001c905090565b8280548282559060005260206000209081019282156106bf579160200282015b828111156106be5782518260006101000a81548173ffffffffffffffffffffffffffffffffffffffff021916908373ffffffffffffffffffffffffffffffffffffffff16021790555091602001919060010190610666565b5b5090506106cc91906106d0565b5090565b5b808211156106e95760008160009055506001016106d1565b5090565b600082825260208201905092915050565b7f506c65617365207061792031206574686572206f6e6c792e0000000000000000600082015250565b60006107346018836106ed565b915061073f826106fe565b602082019050919050565b6000602082019050818103600083015261076381610727565b9050919050565b6000819050919050565b61077d8161076a565b82525050565b60006020820190506107986000830184610774565b92915050565b600073ffffffffffffffffffffffffffffffffffffffff82169050919050565b60006107c98261079e565b9050919050565b6107d9816107be565b82525050565b60006020820190506107f460008301846107d0565b92915050565b600081519050919050565b600082825260208201905092915050565b6000819050602082019050919050565b60006108318261079e565b9050919050565b61084181610826565b82525050565b60006108538383610838565b60208301905092915050565b6000602082019050919050565b6000610877826107fa565b6108818185610805565b935061088c83610816565b8060005b838110156108bd5781516108a48882610847565b97506108af8361085f565b925050600181019050610890565b5085935050505092915050565b600060208201905081810360008301526108e4818461086c565b905092915050565b6108f581610826565b82525050565b600060208201905061091060008301846108ec565b92915050565b600080fd5b6109248161076a565b811461092f57600080fd5b50565b6000813590506109418161091b565b92915050565b60006020828403121561095d5761095c610916565b5b600061096b84828501610932565b91505092915050565b7f596f7520617265206e6f7420746865206d616e616765722e0000000000000000600082015250565b60006109aa6018836106ed565b91506109b582610974565b602082019050919050565b600060208201905081810360008301526109d98161099d565b9050919050565b7f41746c65617374203320706c61796572732073686f756c64206265207468657260008201527f652e000000000000000000000000000000000000000000000000000000000000602082015250565b6000610a3c6022836106ed565b9150610a47826109e0565b604082019050919050565b60006020820190508181036000830152610a6b81610a2f565b9050919050565b7f4e487b7100000000000000000000000000000000000000000000000000000000600052601260045260246000fd5b6000610aac8261076a565b9150610ab78361076a565b925082610ac757610ac6610a72565b5b828206905092915050565b7f4e487b7100000000000000000000000000000000000000000000000000000000600052603260045260246000fd5b7f4e487b7100000000000000000000000000000000000000000000000000000000600052604160045260246000fd5b6000819050919050565b6000819050919050565b610b55610b5082610b30565b610b3a565b82525050565b6000819050919050565b610b76610b718261076a565b610b5b565b82525050565b6000610b888286610b44565b602082019150610b988285610b65565b602082019150610ba88284610b65565b60208201915081905094935050505056fea2646970667358221220fecb9bf4e068be49b36c5bd42b8c26ccf3dc5f64c16fa33a0b259d77952b840a64736f6c634300080b0033",
  "immutableReferences": {},
  "source": "// SPDX-License-Identifier: UNLICENSED\r\npragma solidity >=0.5.0 <0.9.0;\r\n\r\ncontract Lottery{\r\n    address public manager;\r\n    address payable[] public players;\r\n    address payable public winner;\r\n\r\n    constructor()\r\n    {\r\n        manager=msg.sender;\r\n    }\r\n\r\n    receive() external payable\r\n    {\r\n        require(msg.value == 1 ether ,\"Please pay 1 ether only.\");\r\n        players.push(payable(msg.sender));\r\n    }\r\n\r\n    function getBalance() public view returns(uint)\r\n    {\r\n        require(msg.sender==manager, \"You are not the manager.\");\r\n        return address(this).balance;\r\n    }\r\n    function random() internal view returns(uint)\r\n    {\r\n        return uint(keccak256(abi.encodePacked(blockhash(block.number), block.timestamp, players.length)));\r\n    }\r\n    function pickWinner() public \r\n    {\r\n        require(msg.sender==manager, \"You are not the manager.\");\r\n        require(players.length >= 3, \"Atleast 3 players should be there.\");\r\n        uint r = random();\r\n        uint index = r%players.length;\r\n        winner=players[index];\r\n        winner.transfer(getBalance());\r\n        players = new address payable[](0); \r\n    }\r\n\r\n    function allPlayers() public view returns (address payable[] memory){\r\n        return players;\r\n    }\r\n}",
  "sourcePath": "D:\\Lottery\\contracts\\Lottery.sol",
  "compiler": {
    "name": "solc",
    "version": "0.8.11+commit.d7f03943.Emscripten.clang"
  },
  "schemaVersion": "3.4.16",
  "updatedAt": "2024-05-10T14:20:11.698Z",
  "networkType": "ethereum",
  "devdoc": {
    "kind": "dev",
    "methods": {},
    "version": 1
  },
  "userdoc": {
    "kind": "user",
    "methods": {},
    "version": 1
  }
}