{
  "contractName": "Lottery",
  "abi": [
    {
      "inputs": [],
      "stateMutability": "nonpayable",
      "type": "constructor"
    },
    {
      "inputs": [],
      "name": "manager",
      "outputs": [
        {
          "internalType": "address",
          "name": "",
          "type": "address"
        }
      ],
      "stateMutability": "view",
      "type": "function",
      "constant": true
    },
    {
      "inputs": [
        {
          "internalType": "uint256",
          "name": "",
          "type": "uint256"
        }
      ],
      "name": "participants",
      "outputs": [
        {
          "internalType": "address payable",
          "name": "",
          "type": "address"
        }
      ],
      "stateMutability": "view",
      "type": "function",
      "constant": true
    },
    {
      "inputs": [],
      "name": "participate",
      "outputs": [],
      "stateMutability": "payable",
      "type": "function",
      "payable": true
    },
    {
      "inputs": [],
      "name": "getBalance",
      "outputs": [
        {
          "internalType": "uint256",
          "name": "",
          "type": "uint256"
        }
      ],
      "stateMutability": "view",
      "type": "function",
      "constant": true
    },
    {
      "inputs": [],
      "name": "Winner",
      "outputs": [],
      "stateMutability": "nonpayable",
      "type": "function"
    },
    {
      "inputs": [],
      "name": "allPlayers",
      "outputs": [
        {
          "internalType": "address payable[]",
          "name": "",
          "type": "address[]"
        }
      ],
      "stateMutability": "view",
      "type": "function",
      "constant": true
    }
  ],
  "bytecode": "0x608060405234801561001057600080fd5b50336000806101000a81548173ffffffffffffffffffffffffffffffffffffffff021916908373ffffffffffffffffffffffffffffffffffffffff160217905550610b41806100606000396000f3fe6080604052600436106100555760003560e01c806312065fe01461005a57806335c1d34914610085578063481c6a75146100c2578063b0ec8094146100ed578063b2b98ed214610118578063d11711a21461012f575b600080fd5b34801561006657600080fd5b5061006f610139565b60405161007c9190610658565b60405180910390f35b34801561009157600080fd5b506100ac60048036038101906100a791906106a4565b6101d0565b6040516100b99190610712565b60405180910390f35b3480156100ce57600080fd5b506100d761020f565b6040516100e4919061074e565b60405180910390f35b3480156100f957600080fd5b50610102610233565b60405161010f9190610827565b60405180910390f35b34801561012457600080fd5b5061012d6102c1565b005b6101376104ae565b005b60008060009054906101000a900473ffffffffffffffffffffffffffffffffffffffff1673ffffffffffffffffffffffffffffffffffffffff163373ffffffffffffffffffffffffffffffffffffffff16146101ca576040517f08c379a00000000000000000000000000000000000000000000000000000000081526004016101c1906108a6565b60405180910390fd5b47905090565b600181815481106101e057600080fd5b906000526020600020016000915054906101000a900473ffffffffffffffffffffffffffffffffffffffff1681565b60008054906101000a900473ffffffffffffffffffffffffffffffffffffffff1681565b606060018054806020026020016040519081016040528092919081815260200182805480156102b757602002820191906000526020600020905b8160009054906101000a900473ffffffffffffffffffffffffffffffffffffffff1673ffffffffffffffffffffffffffffffffffffffff168152602001906001019080831161026d575b5050505050905090565b60008054906101000a900473ffffffffffffffffffffffffffffffffffffffff1673ffffffffffffffffffffffffffffffffffffffff163373ffffffffffffffffffffffffffffffffffffffff161461034f576040517f08c379a0000000000000000000000000000000000000000000000000000000008152600401610346906108a6565b60405180910390fd5b60036001805490501015610398576040517f08c379a000000000000000000000000000000000000000000000000000000000815260040161038f90610938565b60405180910390fd5b60006103a261055d565b9050600080600180549050836103b89190610987565b9050600181815481106103ce576103cd6109b8565b5b9060005260206000200160009054906101000a900473ffffffffffffffffffffffffffffffffffffffff1691508173ffffffffffffffffffffffffffffffffffffffff166108fc61041d610139565b9081150290604051600060405180830381858888f19350505050158015610448573d6000803e3d6000fd5b50600067ffffffffffffffff811115610464576104636109e7565b5b6040519080825280602002602001820160405280156104925781602001602082028036833780820191505090505b50600190805190602001906104a8929190610598565b50505050565b670de0b6b3a764000034146104f8576040517f08c379a00000000000000000000000000000000000000000000000000000000081526004016104ef90610a62565b60405180910390fd5b6001339080600181540180825580915050600190039060005260206000200160009091909190916101000a81548173ffffffffffffffffffffffffffffffffffffffff021916908373ffffffffffffffffffffffffffffffffffffffff160217905550565b600043404260018054905060405160200161057a93929190610ace565b6040516020818303038152906040528051906020012060001c905090565b828054828255906000526020600020908101928215610611579160200282015b828111156106105782518260006101000a81548173ffffffffffffffffffffffffffffffffffffffff021916908373ffffffffffffffffffffffffffffffffffffffff160217905550916020019190600101906105b8565b5b50905061061e9190610622565b5090565b5b8082111561063b576000816000905550600101610623565b5090565b6000819050919050565b6106528161063f565b82525050565b600060208201905061066d6000830184610649565b92915050565b600080fd5b6106818161063f565b811461068c57600080fd5b50565b60008135905061069e81610678565b92915050565b6000602082840312156106ba576106b9610673565b5b60006106c88482850161068f565b91505092915050565b600073ffffffffffffffffffffffffffffffffffffffff82169050919050565b60006106fc826106d1565b9050919050565b61070c816106f1565b82525050565b60006020820190506107276000830184610703565b92915050565b6000610738826106d1565b9050919050565b6107488161072d565b82525050565b6000602082019050610763600083018461073f565b92915050565b600081519050919050565b600082825260208201905092915050565b6000819050602082019050919050565b61079e816106f1565b82525050565b60006107b08383610795565b60208301905092915050565b6000602082019050919050565b60006107d482610769565b6107de8185610774565b93506107e983610785565b8060005b8381101561081a57815161080188826107a4565b975061080c836107bc565b9250506001810190506107ed565b5085935050505092915050565b6000602082019050818103600083015261084181846107c9565b905092915050565b600082825260208201905092915050565b7f596f7520617265206e6f7420746865206d616e616765722e0000000000000000600082015250565b6000610890601883610849565b915061089b8261085a565b602082019050919050565b600060208201905081810360008301526108bf81610883565b9050919050565b7f41746c65617374203320706c61796572732073686f756c64206265207468657260008201527f652e000000000000000000000000000000000000000000000000000000000000602082015250565b6000610922602283610849565b915061092d826108c6565b604082019050919050565b6000602082019050818103600083015261095181610915565b9050919050565b7f4e487b7100000000000000000000000000000000000000000000000000000000600052601260045260246000fd5b60006109928261063f565b915061099d8361063f565b9250826109ad576109ac610958565b5b828206905092915050565b7f4e487b7100000000000000000000000000000000000000000000000000000000600052603260045260246000fd5b7f4e487b7100000000000000000000000000000000000000000000000000000000600052604160045260246000fd5b7f506c65617365207061792031206574686572206f6e6c792e0000000000000000600082015250565b6000610a4c601883610849565b9150610a5782610a16565b602082019050919050565b60006020820190508181036000830152610a7b81610a3f565b9050919050565b6000819050919050565b6000819050919050565b610aa7610aa282610a82565b610a8c565b82525050565b6000819050919050565b610ac8610ac38261063f565b610aad565b82525050565b6000610ada8286610a96565b602082019150610aea8285610ab7565b602082019150610afa8284610ab7565b60208201915081905094935050505056fea2646970667358221220146dff91fcb58530281eacabe07568a085e9247de5def691ec15f31fd4048bdb64736f6c634300080b0033",
  "immutableReferences": {},
  "source": "// SPDX-License-Identifier: UNLICENSED\r\npragma solidity >=0.5.0 <0.9.0;\r\n\r\ncontract Lottery{\r\n    address public manager;\r\n    address payable[] public participants;\r\n\r\n    constructor()\r\n    {\r\n        manager=msg.sender;\r\n    }\r\n\r\n    function participate() public payable\r\n    {\r\n        require(msg.value == 1 ether ,\"Please pay 1 ether only.\");\r\n        participants.push(payable(msg.sender));\r\n    }\r\n\r\n    function getBalance() public view returns(uint)\r\n    {\r\n        require(msg.sender==manager, \"You are not the manager.\");\r\n        return address(this).balance;\r\n    }\r\n    function Random() internal view returns(uint)\r\n    {\r\n        return uint(keccak256(abi.encodePacked(blockhash(block.number), block.timestamp, participants.length)));\r\n    }\r\n    function Winner() public \r\n    {\r\n        require(msg.sender==manager, \"You are not the manager.\");\r\n        require(participants.length >= 3, \"Atleast 3 players should be there.\");\r\n        uint r = Random();\r\n        address payable winner;\r\n        uint index = r%participants.length;\r\n        winner=participants[index];\r\n        winner.transfer(getBalance());\r\n        participants = new address payable[](0); \r\n    }\r\n\r\n    function allPlayers() public view returns (address payable[] memory){\r\n        return participants;\r\n    }\r\n}",
  "sourcePath": "D:\\Lottery\\contracts\\Lottery.sol",
  "compiler": {
    "name": "solc",
    "version": "0.8.11+commit.d7f03943.Emscripten.clang"
  },
  "schemaVersion": "3.4.16",
  "updatedAt": "2024-05-09T21:56:28.760Z",
  "networkType": "ethereum",
  "devdoc": {
    "kind": "dev",
    "methods": {},
    "version": 1
  },
  "userdoc": {
    "kind": "user",
    "methods": {},
    "version": 1
  }
}